{
	"_format": "hh-sol-artifact-1",
	"contractName": "MyEpicNFT",
	"sourceName": "contracts/MyEpicNFT.sol",
	"abi": [
		{
			"inputs": [
				{
					"internalType": "uint64",
					"name": "subscriptionId",
					"type": "uint64"
				}
			],
			"stateMutability": "nonpayable",
			"type": "constructor"
		},
		{
			"inputs": [
				{
					"internalType": "address",
					"name": "have",
					"type": "address"
				},
				{
					"internalType": "address",
					"name": "want",
					"type": "address"
				}
			],
			"name": "OnlyCoordinatorCanFulfill",
			"type": "error"
		},
		{
			"anonymous": false,
			"inputs": [
				{
					"indexed": true,
					"internalType": "address",
					"name": "owner",
					"type": "address"
				},
				{
					"indexed": true,
					"internalType": "address",
					"name": "approved",
					"type": "address"
				},
				{
					"indexed": true,
					"internalType": "uint256",
					"name": "tokenId",
					"type": "uint256"
				}
			],
			"name": "Approval",
			"type": "event"
		},
		{
			"anonymous": false,
			"inputs": [
				{
					"indexed": true,
					"internalType": "address",
					"name": "owner",
					"type": "address"
				},
				{
					"indexed": true,
					"internalType": "address",
					"name": "operator",
					"type": "address"
				},
				{
					"indexed": false,
					"internalType": "bool",
					"name": "approved",
					"type": "bool"
				}
			],
			"name": "ApprovalForAll",
			"type": "event"
		},
		{
			"anonymous": false,
			"inputs": [
				{
					"indexed": true,
					"internalType": "address",
					"name": "from",
					"type": "address"
				},
				{
					"indexed": true,
					"internalType": "address",
					"name": "to",
					"type": "address"
				}
			],
			"name": "OwnershipTransferRequested",
			"type": "event"
		},
		{
			"anonymous": false,
			"inputs": [
				{
					"indexed": true,
					"internalType": "address",
					"name": "from",
					"type": "address"
				},
				{
					"indexed": true,
					"internalType": "address",
					"name": "to",
					"type": "address"
				}
			],
			"name": "OwnershipTransferred",
			"type": "event"
		},
		{
			"anonymous": false,
			"inputs": [
				{
					"indexed": false,
					"internalType": "uint256",
					"name": "requestId",
					"type": "uint256"
				},
				{
					"indexed": false,
					"internalType": "uint256[]",
					"name": "randomWords",
					"type": "uint256[]"
				}
			],
			"name": "RequestFulfilled",
			"type": "event"
		},
		{
			"anonymous": false,
			"inputs": [
				{
					"indexed": false,
					"internalType": "uint256",
					"name": "requestId",
					"type": "uint256"
				},
				{
					"indexed": false,
					"internalType": "uint32",
					"name": "numWords",
					"type": "uint32"
				}
			],
			"name": "RequestSent",
			"type": "event"
		},
		{
			"anonymous": false,
			"inputs": [
				{
					"indexed": true,
					"internalType": "address",
					"name": "from",
					"type": "address"
				},
				{
					"indexed": true,
					"internalType": "address",
					"name": "to",
					"type": "address"
				},
				{
					"indexed": true,
					"internalType": "uint256",
					"name": "tokenId",
					"type": "uint256"
				}
			],
			"name": "Transfer",
			"type": "event"
		},
		{
			"inputs": [],
			"name": "acceptOwnership",
			"outputs": [],
			"stateMutability": "nonpayable",
			"type": "function"
		},
		{
			"inputs": [
				{
					"internalType": "address",
					"name": "to",
					"type": "address"
				},
				{
					"internalType": "uint256",
					"name": "tokenId",
					"type": "uint256"
				}
			],
			"name": "approve",
			"outputs": [],
			"stateMutability": "nonpayable",
			"type": "function"
		},
		{
			"inputs": [
				{
					"internalType": "address",
					"name": "owner",
					"type": "address"
				}
			],
			"name": "balanceOf",
			"outputs": [
				{
					"internalType": "uint256",
					"name": "",
					"type": "uint256"
				}
			],
			"stateMutability": "view",
			"type": "function"
		},
		{
			"inputs": [
				{
					"internalType": "uint256",
					"name": "tokenId",
					"type": "uint256"
				}
			],
			"name": "getApproved",
			"outputs": [
				{
					"internalType": "address",
					"name": "",
					"type": "address"
				}
			],
			"stateMutability": "view",
			"type": "function"
		},
		{
			"inputs": [],
			"name": "getItemColor",
			"outputs": [
				{
					"internalType": "string",
					"name": "",
					"type": "string"
				}
			],
			"stateMutability": "view",
			"type": "function"
		},
		{
			"inputs": [],
			"name": "getItemId",
			"outputs": [
				{
					"internalType": "uint256",
					"name": "",
					"type": "uint256"
				}
			],
			"stateMutability": "view",
			"type": "function"
		},
		{
			"inputs": [],
			"name": "getItemName",
			"outputs": [
				{
					"internalType": "string",
					"name": "",
					"type": "string"
				}
			],
			"stateMutability": "view",
			"type": "function"
		},
		{
			"inputs": [
				{
					"internalType": "uint256",
					"name": "_requestId",
					"type": "uint256"
				}
			],
			"name": "getRequestStatus",
			"outputs": [
				{
					"internalType": "bool",
					"name": "fulfilled",
					"type": "bool"
				},
				{
					"internalType": "uint256[]",
					"name": "randomWords",
					"type": "uint256[]"
				}
			],
			"stateMutability": "view",
			"type": "function"
		},
		{
			"inputs": [
				{
					"internalType": "address",
					"name": "owner",
					"type": "address"
				},
				{
					"internalType": "address",
					"name": "operator",
					"type": "address"
				}
			],
			"name": "isApprovedForAll",
			"outputs": [
				{
					"internalType": "bool",
					"name": "",
					"type": "bool"
				}
			],
			"stateMutability": "view",
			"type": "function"
		},
		{
			"inputs": [],
			"name": "lastRequestId",
			"outputs": [
				{
					"internalType": "uint256",
					"name": "",
					"type": "uint256"
				}
			],
			"stateMutability": "view",
			"type": "function"
		},
		{
			"inputs": [],
			"name": "makeAnEpicNFT",
			"outputs": [],
			"stateMutability": "nonpayable",
			"type": "function"
		},
		{
			"inputs": [],
			"name": "name",
			"outputs": [
				{
					"internalType": "string",
					"name": "",
					"type": "string"
				}
			],
			"stateMutability": "view",
			"type": "function"
		},
		{
			"inputs": [],
			"name": "owner",
			"outputs": [
				{
					"internalType": "address",
					"name": "",
					"type": "address"
				}
			],
			"stateMutability": "view",
			"type": "function"
		},
		{
			"inputs": [
				{
					"internalType": "uint256",
					"name": "tokenId",
					"type": "uint256"
				}
			],
			"name": "ownerOf",
			"outputs": [
				{
					"internalType": "address",
					"name": "",
					"type": "address"
				}
			],
			"stateMutability": "view",
			"type": "function"
		},
		{
			"inputs": [
				{
					"internalType": "uint256",
					"name": "requestId",
					"type": "uint256"
				},
				{
					"internalType": "uint256[]",
					"name": "randomWords",
					"type": "uint256[]"
				}
			],
			"name": "rawFulfillRandomWords",
			"outputs": [],
			"stateMutability": "nonpayable",
			"type": "function"
		},
		{
			"inputs": [
				{
					"internalType": "uint256",
					"name": "",
					"type": "uint256"
				}
			],
			"name": "requestIds",
			"outputs": [
				{
					"internalType": "uint256",
					"name": "",
					"type": "uint256"
				}
			],
			"stateMutability": "view",
			"type": "function"
		},
		{
			"inputs": [],
			"name": "requestRandomWords",
			"outputs": [
				{
					"internalType": "uint256",
					"name": "requestId",
					"type": "uint256"
				}
			],
			"stateMutability": "nonpayable",
			"type": "function"
		},
		{
			"inputs": [],
			"name": "s_randomWords",
			"outputs": [
				{
					"internalType": "uint256",
					"name": "",
					"type": "uint256"
				}
			],
			"stateMutability": "view",
			"type": "function"
		},
		{
			"inputs": [
				{
					"internalType": "uint256",
					"name": "",
					"type": "uint256"
				}
			],
			"name": "s_requests",
			"outputs": [
				{
					"internalType": "bool",
					"name": "fulfilled",
					"type": "bool"
				},
				{
					"internalType": "bool",
					"name": "exists",
					"type": "bool"
				}
			],
			"stateMutability": "view",
			"type": "function"
		},
		{
			"inputs": [
				{
					"internalType": "address",
					"name": "from",
					"type": "address"
				},
				{
					"internalType": "address",
					"name": "to",
					"type": "address"
				},
				{
					"internalType": "uint256",
					"name": "tokenId",
					"type": "uint256"
				}
			],
			"name": "safeTransferFrom",
			"outputs": [],
			"stateMutability": "nonpayable",
			"type": "function"
		},
		{
			"inputs": [
				{
					"internalType": "address",
					"name": "from",
					"type": "address"
				},
				{
					"internalType": "address",
					"name": "to",
					"type": "address"
				},
				{
					"internalType": "uint256",
					"name": "tokenId",
					"type": "uint256"
				},
				{
					"internalType": "bytes",
					"name": "data",
					"type": "bytes"
				}
			],
			"name": "safeTransferFrom",
			"outputs": [],
			"stateMutability": "nonpayable",
			"type": "function"
		},
		{
			"inputs": [
				{
					"internalType": "address",
					"name": "operator",
					"type": "address"
				},
				{
					"internalType": "bool",
					"name": "approved",
					"type": "bool"
				}
			],
			"name": "setApprovalForAll",
			"outputs": [],
			"stateMutability": "nonpayable",
			"type": "function"
		},
		{
			"inputs": [
				{
					"internalType": "bytes4",
					"name": "interfaceId",
					"type": "bytes4"
				}
			],
			"name": "supportsInterface",
			"outputs": [
				{
					"internalType": "bool",
					"name": "",
					"type": "bool"
				}
			],
			"stateMutability": "view",
			"type": "function"
		},
		{
			"inputs": [],
			"name": "symbol",
			"outputs": [
				{
					"internalType": "string",
					"name": "",
					"type": "string"
				}
			],
			"stateMutability": "view",
			"type": "function"
		},
		{
			"inputs": [
				{
					"internalType": "uint256",
					"name": "tokenId",
					"type": "uint256"
				}
			],
			"name": "tokenURI",
			"outputs": [
				{
					"internalType": "string",
					"name": "",
					"type": "string"
				}
			],
			"stateMutability": "view",
			"type": "function"
		},
		{
			"inputs": [
				{
					"internalType": "address",
					"name": "from",
					"type": "address"
				},
				{
					"internalType": "address",
					"name": "to",
					"type": "address"
				},
				{
					"internalType": "uint256",
					"name": "tokenId",
					"type": "uint256"
				}
			],
			"name": "transferFrom",
			"outputs": [],
			"stateMutability": "nonpayable",
			"type": "function"
		},
		{
			"inputs": [
				{
					"internalType": "address",
					"name": "to",
					"type": "address"
				}
			],
			"name": "transferOwnership",
			"outputs": [],
			"stateMutability": "nonpayable",
			"type": "function"
		}
	],
	"bytecode": "0x60a0604052732ca8e0c643bde4c2e08ab1fa0da3401adad7734d600f60006101000a81548173ffffffffffffffffffffffffffffffffffffffff021916908373ffffffffffffffffffffffffffffffffffffffff1602179055507f79d3d8832d904592c0bf9818b621522c988bb8b0c05cdc3b15aea1b6e8db0c1560001b601055620186a0601160006101000a81548163ffffffff021916908363ffffffff1602179055506003601160046101000a81548161ffff021916908361ffff1602179055506001601160066101000a81548163ffffffff021916908363ffffffff1602179055506040518061010001604052806040518060400160405280600581526020017f626c61636b00000000000000000000000000000000000000000000000000000081525081526020016040518060400160405280600481526020017f626c75650000000000000000000000000000000000000000000000000000000081525081526020016040518060400160405280600581526020017f677265656e00000000000000000000000000000000000000000000000000000081525081526020016040518060400160405280600681526020017f6f72616e6765000000000000000000000000000000000000000000000000000081525081526020016040518060400160405280600681526020017f707572706c65000000000000000000000000000000000000000000000000000081525081526020016040518060400160405280600381526020017f726564000000000000000000000000000000000000000000000000000000000081525081526020016040518060400160405280600581526020017f776869746500000000000000000000000000000000000000000000000000000081525081526020016040518060400160405280600681526020017f79656c6c6f7700000000000000000000000000000000000000000000000000008152508152506014906008620002d8929190620008db565b50604051806101000160405280604051806080016040528060568152602001620050936056913981526020016040518060800160405280605581526020016200513f6055913981526020016040518060800160405280605681526020016200529660569139815260200160405180608001604052806057815260200162005194605791398152602001604051806080016040528060578152602001620051eb60579139815260200160405180608001604052806054815260200162005242605491398152602001604051806080016040528060568152602001620050e9605691398152602001604051806080016040528060578152602001620052ec605791398152506015906008620003ed929190620008db565b50348015620003fb57600080fd5b506040516200534338038062005343833981810160405281019062000421919062000aaa565b33806000732ca8e0c643bde4c2e08ab1fa0da3401adad7734d6040518060400160405280600981526020017f5371756172654e465400000000000000000000000000000000000000000000008152506040518060400160405280600681526020017f53515541524500000000000000000000000000000000000000000000000000008152508160009080519060200190620004be92919062000942565b508060019080519060200190620004d792919062000942565b5050508073ffffffffffffffffffffffffffffffffffffffff1660808173ffffffffffffffffffffffffffffffffffffffff168152505050600073ffffffffffffffffffffffffffffffffffffffff168273ffffffffffffffffffffffffffffffffffffffff16141562000582576040517f08c379a0000000000000000000000000000000000000000000000000000000008152600401620005799062000b3d565b60405180910390fd5b81600760006101000a81548173ffffffffffffffffffffffffffffffffffffffff021916908373ffffffffffffffffffffffffffffffffffffffff160217905550600073ffffffffffffffffffffffffffffffffffffffff168173ffffffffffffffffffffffffffffffffffffffff16146200060a576200060981620006dd60201b60201c565b5b505050732ca8e0c643bde4c2e08ab1fa0da3401adad7734d600a60006101000a81548173ffffffffffffffffffffffffffffffffffffffff021916908373ffffffffffffffffffffffffffffffffffffffff16021790555080600c60006101000a81548167ffffffffffffffff021916908367ffffffffffffffff160217905550620006d66040518060400160405280601781526020017f54686973206973206d79204e465420636f6e74726163740000000000000000008152506200080f60201b620017411760201c565b5062000ced565b3373ffffffffffffffffffffffffffffffffffffffff168173ffffffffffffffffffffffffffffffffffffffff1614156200074f576040517f08c379a0000000000000000000000000000000000000000000000000000000008152600401620007469062000baf565b60405180910390fd5b80600860006101000a81548173ffffffffffffffffffffffffffffffffffffffff021916908373ffffffffffffffffffffffffffffffffffffffff1602179055508073ffffffffffffffffffffffffffffffffffffffff16600760009054906101000a900473ffffffffffffffffffffffffffffffffffffffff1673ffffffffffffffffffffffffffffffffffffffff167fed8889f560326eb138920d842192f0eb3dd22b4f139c87a2c57538e05bae127860405160405180910390a350565b620008af8160405160240162000826919062000c64565b6040516020818303038152906040527f41304fac000000000000000000000000000000000000000000000000000000007bffffffffffffffffffffffffffffffffffffffffffffffffffffffff19166020820180517bffffffffffffffffffffffffffffffffffffffffffffffffffffffff8381831617835250505050620008b260201b60201c565b50565b60008151905060006a636f6e736f6c652e6c6f679050602083016000808483855afa5050505050565b8280548282559060005260206000209081019282156200092f579160200282015b828111156200092e5782518290805190602001906200091d92919062000942565b5091602001919060010190620008fc565b5b5090506200093e9190620009d3565b5090565b828054620009509062000cb7565b90600052602060002090601f016020900481019282620009745760008555620009c0565b82601f106200098f57805160ff1916838001178555620009c0565b82800160010185558215620009c0579182015b82811115620009bf578251825591602001919060010190620009a2565b5b509050620009cf9190620009fb565b5090565b5b80821115620009f75760008181620009ed919062000a1a565b50600101620009d4565b5090565b5b8082111562000a16576000816000905550600101620009fc565b5090565b50805462000a289062000cb7565b6000825580601f1062000a3c575062000a5d565b601f01602090049060005260206000209081019062000a5c9190620009fb565b5b50565b600080fd5b600067ffffffffffffffff82169050919050565b62000a848162000a65565b811462000a9057600080fd5b50565b60008151905062000aa48162000a79565b92915050565b60006020828403121562000ac35762000ac262000a60565b5b600062000ad38482850162000a93565b91505092915050565b600082825260208201905092915050565b7f43616e6e6f7420736574206f776e657220746f207a65726f0000000000000000600082015250565b600062000b2560188362000adc565b915062000b328262000aed565b602082019050919050565b6000602082019050818103600083015262000b588162000b16565b9050919050565b7f43616e6e6f74207472616e7366657220746f2073656c66000000000000000000600082015250565b600062000b9760178362000adc565b915062000ba48262000b5f565b602082019050919050565b6000602082019050818103600083015262000bca8162000b88565b9050919050565b600081519050919050565b60005b8381101562000bfc57808201518184015260208101905062000bdf565b8381111562000c0c576000848401525b50505050565b6000601f19601f8301169050919050565b600062000c308262000bd1565b62000c3c818562000adc565b935062000c4e81856020860162000bdc565b62000c598162000c12565b840191505092915050565b6000602082019050818103600083015262000c80818462000c23565b905092915050565b7f4e487b7100000000000000000000000000000000000000000000000000000000600052602260045260246000fd5b6000600282049050600182168062000cd057607f821691505b6020821081141562000ce75762000ce662000c88565b5b50919050565b60805161438362000d1060003960008181610820015261087401526143836000f3fe608060405234801561001057600080fd5b50600436106101a95760003560e01c80638796ba8c116100f9578063c87b56dd11610097578063e0c8628911610071578063e0c86289146104be578063e985e9c5146104dc578063f2fde38b1461050c578063fc2a88c314610528576101a9565b8063c87b56dd14610453578063d8a4676f14610483578063de9d132f146104b4576101a9565b8063a168fa89116100d3578063a168fa89146103cc578063a22cb465146103fd578063b88d4fde14610419578063c819d85a14610435576101a9565b80638796ba8c146103605780638da5cb5b1461039057806395d89b41146103ae576101a9565b806323b872dd11610166578063445f76d711610140578063445f76d7146102d85780636352211e146102f657806370a082311461032657806379ba509714610356576101a9565b806323b872dd146102825780633195c48a1461029e57806342842e0e146102bc576101a9565b806301ffc9a7146101ae57806306fdde03146101de578063081812fc146101fc578063095ea7b31461022c5780631d3c7b91146102485780631fe543e314610266575b600080fd5b6101c860048036038101906101c39190612bc5565b610546565b6040516101d59190612c0d565b60405180910390f35b6101e6610628565b6040516101f39190612cc1565b60405180910390f35b61021660048036038101906102119190612d19565b6106ba565b6040516102239190612d87565b60405180910390f35b61024660048036038101906102419190612dce565b610700565b005b610250610818565b60405161025d9190612e1d565b60405180910390f35b610280600480360381019061027b9190612f80565b61081e565b005b61029c60048036038101906102979190612fdc565b6108de565b005b6102a661093e565b6040516102b39190612cc1565b60405180910390f35b6102d660048036038101906102d19190612fdc565b6109ee565b005b6102e0610a0e565b6040516102ed9190612e1d565b60405180910390f35b610310600480360381019061030b9190612d19565b610a18565b60405161031d9190612d87565b60405180910390f35b610340600480360381019061033b919061302f565b610aca565b60405161034d9190612e1d565b60405180910390f35b61035e610b82565b005b61037a60048036038101906103759190612d19565b610d19565b6040516103879190612e1d565b60405180910390f35b610398610d3d565b6040516103a59190612d87565b60405180910390f35b6103b6610d67565b6040516103c39190612cc1565b60405180910390f35b6103e660048036038101906103e19190612d19565b610df9565b6040516103f492919061305c565b60405180910390f35b610417600480360381019061041291906130b1565b610e37565b005b610433600480360381019061042e91906131a6565b610e4d565b005b61043d610eaf565b60405161044a9190612cc1565b60405180910390f35b61046d60048036038101906104689190612d19565b610f5f565b60405161047a9190612cc1565b60405180910390f35b61049d60048036038101906104989190612d19565b611072565b6040516104ab9291906132e7565b60405180910390f35b6104bc61119d565b005b6104c661142b565b6040516104d39190612e1d565b60405180910390f35b6104f660048036038101906104f19190613317565b611693565b6040516105039190612c0d565b60405180910390f35b6105266004803603810190610521919061302f565b611727565b005b61053061173b565b60405161053d9190612e1d565b60405180910390f35b60007f80ac58cd000000000000000000000000000000000000000000000000000000007bffffffffffffffffffffffffffffffffffffffffffffffffffffffff1916827bffffffffffffffffffffffffffffffffffffffffffffffffffffffff1916148061061157507f5b5e139f000000000000000000000000000000000000000000000000000000007bffffffffffffffffffffffffffffffffffffffffffffffffffffffff1916827bffffffffffffffffffffffffffffffffffffffffffffffffffffffff1916145b806106215750610620826117da565b5b9050919050565b60606000805461063790613386565b80601f016020809104026020016040519081016040528092919081815260200182805461066390613386565b80156106b05780601f10610685576101008083540402835291602001916106b0565b820191906000526020600020905b81548152906001019060200180831161069357829003601f168201915b5050505050905090565b60006106c582611844565b6004600083815260200190815260200160002060009054906101000a900473ffffffffffffffffffffffffffffffffffffffff169050919050565b600061070b82610a18565b90508073ffffffffffffffffffffffffffffffffffffffff168373ffffffffffffffffffffffffffffffffffffffff16141561077c576040517f08c379a00000000000000000000000000000000000000000000000000000000081526004016107739061342a565b60405180910390fd5b8073ffffffffffffffffffffffffffffffffffffffff1661079b61188f565b73ffffffffffffffffffffffffffffffffffffffff1614806107ca57506107c9816107c461188f565b611693565b5b610809576040517f08c379a0000000000000000000000000000000000000000000000000000000008152600401610800906134bc565b60405180910390fd5b6108138383611897565b505050565b60125481565b7f000000000000000000000000000000000000000000000000000000000000000073ffffffffffffffffffffffffffffffffffffffff163373ffffffffffffffffffffffffffffffffffffffff16146108d057337f00000000000000000000000000000000000000000000000000000000000000006040517f1cf993f40000000000000000000000000000000000000000000000000000000081526004016108c79291906134dc565b60405180910390fd5b6108da8282611950565b5050565b6108ef6108e961188f565b82611a88565b61092e576040517f08c379a000000000000000000000000000000000000000000000000000000000815260040161092590613577565b60405180910390fd5b610939838383611b1d565b505050565b606060156012548154811061095657610955613597565b5b90600052602060002001805461096b90613386565b80601f016020809104026020016040519081016040528092919081815260200182805461099790613386565b80156109e45780601f106109b9576101008083540402835291602001916109e4565b820191906000526020600020905b8154815290600101906020018083116109c757829003601f168201915b5050505050905090565b610a0983838360405180602001604052806000815250610e4d565b505050565b6000601354905090565b6000806002600084815260200190815260200160002060009054906101000a900473ffffffffffffffffffffffffffffffffffffffff169050600073ffffffffffffffffffffffffffffffffffffffff168173ffffffffffffffffffffffffffffffffffffffff161415610ac1576040517f08c379a0000000000000000000000000000000000000000000000000000000008152600401610ab890613612565b60405180910390fd5b80915050919050565b60008073ffffffffffffffffffffffffffffffffffffffff168273ffffffffffffffffffffffffffffffffffffffff161415610b3b576040517f08c379a0000000000000000000000000000000000000000000000000000000008152600401610b32906136a4565b60405180910390fd5b600360008373ffffffffffffffffffffffffffffffffffffffff1673ffffffffffffffffffffffffffffffffffffffff168152602001908152602001600020549050919050565b600860009054906101000a900473ffffffffffffffffffffffffffffffffffffffff1673ffffffffffffffffffffffffffffffffffffffff163373ffffffffffffffffffffffffffffffffffffffff1614610c12576040517f08c379a0000000000000000000000000000000000000000000000000000000008152600401610c0990613710565b60405180910390fd5b6000600760009054906101000a900473ffffffffffffffffffffffffffffffffffffffff16905033600760006101000a81548173ffffffffffffffffffffffffffffffffffffffff021916908373ffffffffffffffffffffffffffffffffffffffff1602179055506000600860006101000a81548173ffffffffffffffffffffffffffffffffffffffff021916908373ffffffffffffffffffffffffffffffffffffffff1602179055503373ffffffffffffffffffffffffffffffffffffffff168173ffffffffffffffffffffffffffffffffffffffff167f8be0079c531659141344cd1fd0a4f28419497f9722a3daafe3b4186f6b6457e060405160405180910390a350565b600d8181548110610d2957600080fd5b906000526020600020016000915090505481565b6000600760009054906101000a900473ffffffffffffffffffffffffffffffffffffffff16905090565b606060018054610d7690613386565b80601f0160208091040260200160405190810160405280929190818152602001828054610da290613386565b8015610def5780601f10610dc457610100808354040283529160200191610def565b820191906000526020600020905b815481529060010190602001808311610dd257829003601f168201915b5050505050905090565b60096020528060005260406000206000915090508060000160009054906101000a900460ff16908060000160019054906101000a900460ff16905082565b610e49610e4261188f565b8383611d84565b5050565b610e5e610e5861188f565b83611a88565b610e9d576040517f08c379a0000000000000000000000000000000000000000000000000000000008152600401610e9490613577565b60405180910390fd5b610ea984848484611ef1565b50505050565b6060601460125481548110610ec757610ec6613597565b5b906000526020600020018054610edc90613386565b80601f0160208091040260200160405190810160405280929190818152602001828054610f0890613386565b8015610f555780601f10610f2a57610100808354040283529160200191610f55565b820191906000526020600020905b815481529060010190602001808311610f3857829003601f168201915b5050505050905090565b6060610f6a82611844565b6000600660008481526020019081526020016000208054610f8a90613386565b80601f0160208091040260200160405190810160405280929190818152602001828054610fb690613386565b80156110035780601f10610fd857610100808354040283529160200191611003565b820191906000526020600020905b815481529060010190602001808311610fe657829003601f168201915b505050505090506000611014611f4d565b905060008151141561102a57819250505061106d565b60008251111561105f57808260405160200161104792919061376c565b6040516020818303038152906040529250505061106d565b61106884611f64565b925050505b919050565b600060606009600084815260200190815260200160002060000160019054906101000a900460ff166110d9576040517f08c379a00000000000000000000000000000000000000000000000000000000081526004016110d0906137dc565b60405180910390fd5b6000600960008581526020019081526020016000206040518060600160405290816000820160009054906101000a900460ff161515151581526020016000820160019054906101000a900460ff161515151581526020016001820180548060200260200160405190810160405280929190818152602001828054801561117e57602002820191906000526020600020905b81548152602001906001019080831161116a575b5050505050815250509050806000015181604001519250925050915091565b6111a7600b611fcc565b60138190555060006014601254815481106111c5576111c4613597565b5b9060005260206000200180546111da90613386565b80601f016020809104026020016040519081016040528092919081815260200182805461120690613386565b80156112535780601f1061122857610100808354040283529160200191611253565b820191906000526020600020905b81548152906001019060200180831161123657829003601f168201915b50505050509050600060156012548154811061127257611271613597565b5b90600052602060002001805461128790613386565b80601f01602080910402602001604051908101604052809291908181526020018280546112b390613386565b80156113005780601f106112d557610100808354040283529160200191611300565b820191906000526020600020905b8154815290600101906020018083116112e357829003601f168201915b505050505090506000611333838360405160200161131f929190613952565b604051602081830303815290604052611fda565b905060008160405160200161134891906139ee565b60405160208183030381529060405290506113976040518060400160405280601581526020017f0a2d2d2d2d2d2d2d2d2d2d2d2d2d2d2d2d2d2d2d2d0000000000000000000000815250611741565b6113a081611741565b6113de6040518060400160405280601581526020017f2d2d2d2d2d2d2d2d2d2d2d2d2d2d2d2d2d2d2d2d0a0000000000000000000000815250611741565b6113ea33601354612172565b6113f660135482612190565b611400600b612204565b6114256040518060600160405280602581526020016142e9602591396013543361221a565b50505050565b60006114356122b9565b600a60009054906101000a900473ffffffffffffffffffffffffffffffffffffffff1673ffffffffffffffffffffffffffffffffffffffff16635d3b1d30601054600c60009054906101000a900467ffffffffffffffff16601160049054906101000a900461ffff16601160009054906101000a900463ffffffff16601160069054906101000a900463ffffffff166040518663ffffffff1660e01b81526004016114e4959493929190613a88565b602060405180830381600087803b1580156114fe57600080fd5b505af1158015611512573d6000803e3d6000fd5b505050506040513d601f19601f820116820180604052508101906115369190613af0565b90506040518060600160405280600015158152602001600115158152602001600067ffffffffffffffff8111156115705761156f612e3d565b5b60405190808252806020026020018201604052801561159e5781602001602082028036833780820191505090505b508152506009600083815260200190815260200160002060008201518160000160006101000a81548160ff02191690831515021790555060208201518160000160016101000a81548160ff0219169083151502179055506040820151816001019080519060200190611611929190612a69565b50905050600d81908060018154018082558091505060019003906000526020600020016000909190919091505580600e819055507fcc58b13ad3eab50626c6a6300b1d139cd6ebb1688a7cced9461c2f7e762665ee81601160069054906101000a900463ffffffff16604051611688929190613b1d565b60405180910390a190565b6000600560008473ffffffffffffffffffffffffffffffffffffffff1673ffffffffffffffffffffffffffffffffffffffff16815260200190815260200160002060008373ffffffffffffffffffffffffffffffffffffffff1673ffffffffffffffffffffffffffffffffffffffff16815260200190815260200160002060009054906101000a900460ff16905092915050565b61172f6122b9565b6117388161234b565b50565b600e5481565b6117d7816040516024016117559190612cc1565b6040516020818303038152906040527f41304fac000000000000000000000000000000000000000000000000000000007bffffffffffffffffffffffffffffffffffffffffffffffffffffffff19166020820180517bffffffffffffffffffffffffffffffffffffffffffffffffffffffff838183161783525050505061247a565b50565b60007f01ffc9a7000000000000000000000000000000000000000000000000000000007bffffffffffffffffffffffffffffffffffffffffffffffffffffffff1916827bffffffffffffffffffffffffffffffffffffffffffffffffffffffff1916149050919050565b61184d816124a3565b61188c576040517f08c379a000000000000000000000000000000000000000000000000000000000815260040161188390613612565b60405180910390fd5b50565b600033905090565b816004600083815260200190815260200160002060006101000a81548173ffffffffffffffffffffffffffffffffffffffff021916908373ffffffffffffffffffffffffffffffffffffffff160217905550808273ffffffffffffffffffffffffffffffffffffffff1661190a83610a18565b73ffffffffffffffffffffffffffffffffffffffff167f8c5be1e5ebec7d5bd14f71427d1e84f3dd0314c0f7b2291e5b200ac8c7c3b92560405160405180910390a45050565b6009600083815260200190815260200160002060000160019054906101000a900460ff166119b3576040517f08c379a00000000000000000000000000000000000000000000000000000000081526004016119aa906137dc565b60405180910390fd5b60016009600084815260200190815260200160002060000160006101000a81548160ff02191690831515021790555080600960008481526020019081526020016000206001019080519060200190611a0c929190612a69565b506001601580549050611a1f9190613b75565b81600081518110611a3357611a32613597565b5b6020026020010151611a459190613bd8565b6012819055507ffe2e2d779dba245964d4e3ef9b994be63856fd568bf7d3ca9e224755cb1bd54d8282604051611a7c929190613c09565b60405180910390a15050565b600080611a9483610a18565b90508073ffffffffffffffffffffffffffffffffffffffff168473ffffffffffffffffffffffffffffffffffffffff161480611ad65750611ad58185611693565b5b80611b1457508373ffffffffffffffffffffffffffffffffffffffff16611afc846106ba565b73ffffffffffffffffffffffffffffffffffffffff16145b91505092915050565b8273ffffffffffffffffffffffffffffffffffffffff16611b3d82610a18565b73ffffffffffffffffffffffffffffffffffffffff1614611b93576040517f08c379a0000000000000000000000000000000000000000000000000000000008152600401611b8a90613cab565b60405180910390fd5b600073ffffffffffffffffffffffffffffffffffffffff168273ffffffffffffffffffffffffffffffffffffffff161415611c03576040517f08c379a0000000000000000000000000000000000000000000000000000000008152600401611bfa90613d3d565b60405180910390fd5b611c0e83838361250f565b611c19600082611897565b6001600360008573ffffffffffffffffffffffffffffffffffffffff1673ffffffffffffffffffffffffffffffffffffffff1681526020019081526020016000206000828254611c699190613b75565b925050819055506001600360008473ffffffffffffffffffffffffffffffffffffffff1673ffffffffffffffffffffffffffffffffffffffff1681526020019081526020016000206000828254611cc09190613d5d565b92505081905550816002600083815260200190815260200160002060006101000a81548173ffffffffffffffffffffffffffffffffffffffff021916908373ffffffffffffffffffffffffffffffffffffffff160217905550808273ffffffffffffffffffffffffffffffffffffffff168473ffffffffffffffffffffffffffffffffffffffff167fddf252ad1be2c89b69c2b068fc378daa952ba7f163c4a11628f55a4df523b3ef60405160405180910390a4611d7f838383612514565b505050565b8173ffffffffffffffffffffffffffffffffffffffff168373ffffffffffffffffffffffffffffffffffffffff161415611df3576040517f08c379a0000000000000000000000000000000000000000000000000000000008152600401611dea90613dff565b60405180910390fd5b80600560008573ffffffffffffffffffffffffffffffffffffffff1673ffffffffffffffffffffffffffffffffffffffff16815260200190815260200160002060008473ffffffffffffffffffffffffffffffffffffffff1673ffffffffffffffffffffffffffffffffffffffff16815260200190815260200160002060006101000a81548160ff0219169083151502179055508173ffffffffffffffffffffffffffffffffffffffff168373ffffffffffffffffffffffffffffffffffffffff167f17307eab39ab6107e8899845ad3d59bd9653f200f220920489ca2b5937696c3183604051611ee49190612c0d565b60405180910390a3505050565b611efc848484611b1d565b611f0884848484612519565b611f47576040517f08c379a0000000000000000000000000000000000000000000000000000000008152600401611f3e90613e91565b60405180910390fd5b50505050565b606060405180602001604052806000815250905090565b6060611f6f82611844565b6000611f79611f4d565b90506000815111611f995760405180602001604052806000815250611fc4565b80611fa3846126b0565b604051602001611fb492919061376c565b6040516020818303038152906040525b915050919050565b600081600001549050919050565b60606000825190506000811415612003576040518060200160405280600081525091505061216d565b600060036002836120149190613d5d565b61201e9190613eb1565b600461202a9190613ee2565b9050600060208261203b9190613d5d565b67ffffffffffffffff81111561205457612053612e3d565b5b6040519080825280601f01601f1916602001820160405280156120865781602001600182028036833780820191505090505b509050600060405180606001604052806040815260200161430e604091399050600181016020830160005b8681101561212a5760038101905062ffffff818a015116603f8160121c168401518060081b905060ff603f83600c1c1686015116810190508060081b905060ff603f8360061c1686015116810190508060081b905060ff603f831686015116810190508060e01b905080845260048401935050506120b1565b50600386066001811461214457600281146121545761215f565b613d3d60f01b600283035261215f565b603d60f81b60018303525b508484525050819450505050505b919050565b61218c828260405180602001604052806000815250612811565b5050565b612199826124a3565b6121d8576040517f08c379a00000000000000000000000000000000000000000000000000000000081526004016121cf90613fae565b60405180910390fd5b806006600084815260200190815260200160002090805190602001906121ff929190612ab6565b505050565b6001816000016000828254019250508190555050565b6122b483838360405160240161223293929190613fce565b6040516020818303038152906040527fe3849f79000000000000000000000000000000000000000000000000000000007bffffffffffffffffffffffffffffffffffffffffffffffffffffffff19166020820180517bffffffffffffffffffffffffffffffffffffffffffffffffffffffff838183161783525050505061247a565b505050565b600760009054906101000a900473ffffffffffffffffffffffffffffffffffffffff1673ffffffffffffffffffffffffffffffffffffffff163373ffffffffffffffffffffffffffffffffffffffff1614612349576040517f08c379a000000000000000000000000000000000000000000000000000000000815260040161234090614058565b60405180910390fd5b565b3373ffffffffffffffffffffffffffffffffffffffff168173ffffffffffffffffffffffffffffffffffffffff1614156123ba576040517f08c379a00000000000000000000000000000000000000000000000000000000081526004016123b1906140c4565b60405180910390fd5b80600860006101000a81548173ffffffffffffffffffffffffffffffffffffffff021916908373ffffffffffffffffffffffffffffffffffffffff1602179055508073ffffffffffffffffffffffffffffffffffffffff16600760009054906101000a900473ffffffffffffffffffffffffffffffffffffffff1673ffffffffffffffffffffffffffffffffffffffff167fed8889f560326eb138920d842192f0eb3dd22b4f139c87a2c57538e05bae127860405160405180910390a350565b60008151905060006a636f6e736f6c652e6c6f679050602083016000808483855afa5050505050565b60008073ffffffffffffffffffffffffffffffffffffffff166002600084815260200190815260200160002060009054906101000a900473ffffffffffffffffffffffffffffffffffffffff1673ffffffffffffffffffffffffffffffffffffffff1614159050919050565b505050565b505050565b600061253a8473ffffffffffffffffffffffffffffffffffffffff1661286c565b156126a3578373ffffffffffffffffffffffffffffffffffffffff1663150b7a0261256361188f565b8786866040518563ffffffff1660e01b81526004016125859493929190614139565b602060405180830381600087803b15801561259f57600080fd5b505af19250505080156125d057506040513d601f19601f820116820180604052508101906125cd919061419a565b60015b612653573d8060008114612600576040519150601f19603f3d011682016040523d82523d6000602084013e612605565b606091505b5060008151141561264b576040517f08c379a000000000000000000000000000000000000000000000000000000000815260040161264290613e91565b60405180910390fd5b805181602001fd5b63150b7a0260e01b7bffffffffffffffffffffffffffffffffffffffffffffffffffffffff1916817bffffffffffffffffffffffffffffffffffffffffffffffffffffffff1916149150506126a8565b600190505b949350505050565b606060008214156126f8576040518060400160405280600181526020017f3000000000000000000000000000000000000000000000000000000000000000815250905061280c565b600082905060005b6000821461272a578080612713906141c7565b915050600a826127239190613eb1565b9150612700565b60008167ffffffffffffffff81111561274657612745612e3d565b5b6040519080825280601f01601f1916602001820160405280156127785781602001600182028036833780820191505090505b5090505b60008514612805576001826127919190613b75565b9150600a856127a09190613bd8565b60306127ac9190613d5d565b60f81b8183815181106127c2576127c1613597565b5b60200101907effffffffffffffffffffffffffffffffffffffffffffffffffffffffffffff1916908160001a905350600a856127fe9190613eb1565b945061277c565b8093505050505b919050565b61281b838361288f565b6128286000848484612519565b612867576040517f08c379a000000000000000000000000000000000000000000000000000000000815260040161285e90613e91565b60405180910390fd5b505050565b6000808273ffffffffffffffffffffffffffffffffffffffff163b119050919050565b600073ffffffffffffffffffffffffffffffffffffffff168273ffffffffffffffffffffffffffffffffffffffff1614156128ff576040517f08c379a00000000000000000000000000000000000000000000000000000000081526004016128f69061425c565b60405180910390fd5b612908816124a3565b15612948576040517f08c379a000000000000000000000000000000000000000000000000000000000815260040161293f906142c8565b60405180910390fd5b6129546000838361250f565b6001600360008473ffffffffffffffffffffffffffffffffffffffff1673ffffffffffffffffffffffffffffffffffffffff16815260200190815260200160002060008282546129a49190613d5d565b92505081905550816002600083815260200190815260200160002060006101000a81548173ffffffffffffffffffffffffffffffffffffffff021916908373ffffffffffffffffffffffffffffffffffffffff160217905550808273ffffffffffffffffffffffffffffffffffffffff16600073ffffffffffffffffffffffffffffffffffffffff167fddf252ad1be2c89b69c2b068fc378daa952ba7f163c4a11628f55a4df523b3ef60405160405180910390a4612a6560008383612514565b5050565b828054828255906000526020600020908101928215612aa5579160200282015b82811115612aa4578251825591602001919060010190612a89565b5b509050612ab29190612b3c565b5090565b828054612ac290613386565b90600052602060002090601f016020900481019282612ae45760008555612b2b565b82601f10612afd57805160ff1916838001178555612b2b565b82800160010185558215612b2b579182015b82811115612b2a578251825591602001919060010190612b0f565b5b509050612b389190612b3c565b5090565b5b80821115612b55576000816000905550600101612b3d565b5090565b6000604051905090565b600080fd5b600080fd5b60007fffffffff0000000000000000000000000000000000000000000000000000000082169050919050565b612ba281612b6d565b8114612bad57600080fd5b50565b600081359050612bbf81612b99565b92915050565b600060208284031215612bdb57612bda612b63565b5b6000612be984828501612bb0565b91505092915050565b60008115159050919050565b612c0781612bf2565b82525050565b6000602082019050612c226000830184612bfe565b92915050565b600081519050919050565b600082825260208201905092915050565b60005b83811015612c62578082015181840152602081019050612c47565b83811115612c71576000848401525b50505050565b6000601f19601f8301169050919050565b6000612c9382612c28565b612c9d8185612c33565b9350612cad818560208601612c44565b612cb681612c77565b840191505092915050565b60006020820190508181036000830152612cdb8184612c88565b905092915050565b6000819050919050565b612cf681612ce3565b8114612d0157600080fd5b50565b600081359050612d1381612ced565b92915050565b600060208284031215612d2f57612d2e612b63565b5b6000612d3d84828501612d04565b91505092915050565b600073ffffffffffffffffffffffffffffffffffffffff82169050919050565b6000612d7182612d46565b9050919050565b612d8181612d66565b82525050565b6000602082019050612d9c6000830184612d78565b92915050565b612dab81612d66565b8114612db657600080fd5b50565b600081359050612dc881612da2565b92915050565b60008060408385031215612de557612de4612b63565b5b6000612df385828601612db9565b9250506020612e0485828601612d04565b9150509250929050565b612e1781612ce3565b82525050565b6000602082019050612e326000830184612e0e565b92915050565b600080fd5b7f4e487b7100000000000000000000000000000000000000000000000000000000600052604160045260246000fd5b612e7582612c77565b810181811067ffffffffffffffff82111715612e9457612e93612e3d565b5b80604052505050565b6000612ea7612b59565b9050612eb38282612e6c565b919050565b600067ffffffffffffffff821115612ed357612ed2612e3d565b5b602082029050602081019050919050565b600080fd5b6000612efc612ef784612eb8565b612e9d565b90508083825260208201905060208402830185811115612f1f57612f1e612ee4565b5b835b81811015612f485780612f348882612d04565b845260208401935050602081019050612f21565b5050509392505050565b600082601f830112612f6757612f66612e38565b5b8135612f77848260208601612ee9565b91505092915050565b60008060408385031215612f9757612f96612b63565b5b6000612fa585828601612d04565b925050602083013567ffffffffffffffff811115612fc657612fc5612b68565b5b612fd285828601612f52565b9150509250929050565b600080600060608486031215612ff557612ff4612b63565b5b600061300386828701612db9565b935050602061301486828701612db9565b925050604061302586828701612d04565b9150509250925092565b60006020828403121561304557613044612b63565b5b600061305384828501612db9565b91505092915050565b60006040820190506130716000830185612bfe565b61307e6020830184612bfe565b9392505050565b61308e81612bf2565b811461309957600080fd5b50565b6000813590506130ab81613085565b92915050565b600080604083850312156130c8576130c7612b63565b5b60006130d685828601612db9565b92505060206130e78582860161309c565b9150509250929050565b600080fd5b600067ffffffffffffffff82111561311157613110612e3d565b5b61311a82612c77565b9050602081019050919050565b82818337600083830152505050565b6000613149613144846130f6565b612e9d565b905082815260208101848484011115613165576131646130f1565b5b613170848285613127565b509392505050565b600082601f83011261318d5761318c612e38565b5b813561319d848260208601613136565b91505092915050565b600080600080608085870312156131c0576131bf612b63565b5b60006131ce87828801612db9565b94505060206131df87828801612db9565b93505060406131f087828801612d04565b925050606085013567ffffffffffffffff81111561321157613210612b68565b5b61321d87828801613178565b91505092959194509250565b600081519050919050565b600082825260208201905092915050565b6000819050602082019050919050565b61325e81612ce3565b82525050565b60006132708383613255565b60208301905092915050565b6000602082019050919050565b600061329482613229565b61329e8185613234565b93506132a983613245565b8060005b838110156132da5781516132c18882613264565b97506132cc8361327c565b9250506001810190506132ad565b5085935050505092915050565b60006040820190506132fc6000830185612bfe565b818103602083015261330e8184613289565b90509392505050565b6000806040838503121561332e5761332d612b63565b5b600061333c85828601612db9565b925050602061334d85828601612db9565b9150509250929050565b7f4e487b7100000000000000000000000000000000000000000000000000000000600052602260045260246000fd5b6000600282049050600182168061339e57607f821691505b602082108114156133b2576133b1613357565b5b50919050565b7f4552433732313a20617070726f76616c20746f2063757272656e74206f776e6560008201527f7200000000000000000000000000000000000000000000000000000000000000602082015250565b6000613414602183612c33565b915061341f826133b8565b604082019050919050565b6000602082019050818103600083015261344381613407565b9050919050565b7f4552433732313a20617070726f76652063616c6c6572206973206e6f7420746f60008201527f6b656e206f776e6572206e6f7220617070726f76656420666f7220616c6c0000602082015250565b60006134a6603e83612c33565b91506134b18261344a565b604082019050919050565b600060208201905081810360008301526134d581613499565b9050919050565b60006040820190506134f16000830185612d78565b6134fe6020830184612d78565b9392505050565b7f4552433732313a2063616c6c6572206973206e6f7420746f6b656e206f776e6560008201527f72206e6f7220617070726f766564000000000000000000000000000000000000602082015250565b6000613561602e83612c33565b915061356c82613505565b604082019050919050565b6000602082019050818103600083015261359081613554565b9050919050565b7f4e487b7100000000000000000000000000000000000000000000000000000000600052603260045260246000fd5b7f4552433732313a20696e76616c696420746f6b656e2049440000000000000000600082015250565b60006135fc601883612c33565b9150613607826135c6565b602082019050919050565b6000602082019050818103600083015261362b816135ef565b9050919050565b7f4552433732313a2061646472657373207a65726f206973206e6f74206120766160008201527f6c6964206f776e65720000000000000000000000000000000000000000000000602082015250565b600061368e602983612c33565b915061369982613632565b604082019050919050565b600060208201905081810360008301526136bd81613681565b9050919050565b7f4d7573742062652070726f706f736564206f776e657200000000000000000000600082015250565b60006136fa601683612c33565b9150613705826136c4565b602082019050919050565b60006020820190508181036000830152613729816136ed565b9050919050565b600081905092915050565b600061374682612c28565b6137508185613730565b9350613760818560208601612c44565b80840191505092915050565b6000613778828561373b565b9150613784828461373b565b91508190509392505050565b7f72657175657374206e6f7420666f756e64000000000000000000000000000000600082015250565b60006137c6601183612c33565b91506137d182613790565b602082019050919050565b600060208201905081810360008301526137f5816137b9565b9050919050565b7f7b226e616d65223a202200000000000000000000000000000000000000000000600082015250565b6000613832600a83613730565b915061383d826137fc565b600a82019050919050565b7f222c20226465736372697074696f6e223a20224120686967686c79206163636c60008201527f61696d656420636f6c6c656374696f6e206f6620737175617265732e222c0000602082015250565b60006138a4603e83613730565b91506138af82613848565b603e82019050919050565b7f22696d616765223a202200000000000000000000000000000000000000000000600082015250565b60006138f0600a83613730565b91506138fb826138ba565b600a82019050919050565b7f227d000000000000000000000000000000000000000000000000000000000000600082015250565b600061393c600283613730565b915061394782613906565b600282019050919050565b600061395d82613825565b9150613969828561373b565b915061397482613897565b915061397f826138e3565b915061398b828461373b565b91506139968261392f565b91508190509392505050565b7f646174613a6170706c69636174696f6e2f6a736f6e3b6261736536342c000000600082015250565b60006139d8601d83613730565b91506139e3826139a2565b601d82019050919050565b60006139f9826139cb565b9150613a05828461373b565b915081905092915050565b6000819050919050565b613a2381613a10565b82525050565b600067ffffffffffffffff82169050919050565b613a4681613a29565b82525050565b600061ffff82169050919050565b613a6381613a4c565b82525050565b600063ffffffff82169050919050565b613a8281613a69565b82525050565b600060a082019050613a9d6000830188613a1a565b613aaa6020830187613a3d565b613ab76040830186613a5a565b613ac46060830185613a79565b613ad16080830184613a79565b9695505050505050565b600081519050613aea81612ced565b92915050565b600060208284031215613b0657613b05612b63565b5b6000613b1484828501613adb565b91505092915050565b6000604082019050613b326000830185612e0e565b613b3f6020830184613a79565b9392505050565b7f4e487b7100000000000000000000000000000000000000000000000000000000600052601160045260246000fd5b6000613b8082612ce3565b9150613b8b83612ce3565b925082821015613b9e57613b9d613b46565b5b828203905092915050565b7f4e487b7100000000000000000000000000000000000000000000000000000000600052601260045260246000fd5b6000613be382612ce3565b9150613bee83612ce3565b925082613bfe57613bfd613ba9565b5b828206905092915050565b6000604082019050613c1e6000830185612e0e565b8181036020830152613c308184613289565b90509392505050565b7f4552433732313a207472616e736665722066726f6d20696e636f72726563742060008201527f6f776e6572000000000000000000000000000000000000000000000000000000602082015250565b6000613c95602583612c33565b9150613ca082613c39565b604082019050919050565b60006020820190508181036000830152613cc481613c88565b9050919050565b7f4552433732313a207472616e7366657220746f20746865207a65726f2061646460008201527f7265737300000000000000000000000000000000000000000000000000000000602082015250565b6000613d27602483612c33565b9150613d3282613ccb565b604082019050919050565b60006020820190508181036000830152613d5681613d1a565b9050919050565b6000613d6882612ce3565b9150613d7383612ce3565b9250827fffffffffffffffffffffffffffffffffffffffffffffffffffffffffffffffff03821115613da857613da7613b46565b5b828201905092915050565b7f4552433732313a20617070726f766520746f2063616c6c657200000000000000600082015250565b6000613de9601983612c33565b9150613df482613db3565b602082019050919050565b60006020820190508181036000830152613e1881613ddc565b9050919050565b7f4552433732313a207472616e7366657220746f206e6f6e20455243373231526560008201527f63656976657220696d706c656d656e7465720000000000000000000000000000602082015250565b6000613e7b603283612c33565b9150613e8682613e1f565b604082019050919050565b60006020820190508181036000830152613eaa81613e6e565b9050919050565b6000613ebc82612ce3565b9150613ec783612ce3565b925082613ed757613ed6613ba9565b5b828204905092915050565b6000613eed82612ce3565b9150613ef883612ce3565b9250817fffffffffffffffffffffffffffffffffffffffffffffffffffffffffffffffff0483118215151615613f3157613f30613b46565b5b828202905092915050565b7f45524337323155524953746f726167653a2055524920736574206f66206e6f6e60008201527f6578697374656e7420746f6b656e000000000000000000000000000000000000602082015250565b6000613f98602e83612c33565b9150613fa382613f3c565b604082019050919050565b60006020820190508181036000830152613fc781613f8b565b9050919050565b60006060820190508181036000830152613fe88186612c88565b9050613ff76020830185612e0e565b6140046040830184612d78565b949350505050565b7f4f6e6c792063616c6c61626c65206279206f776e657200000000000000000000600082015250565b6000614042601683612c33565b915061404d8261400c565b602082019050919050565b6000602082019050818103600083015261407181614035565b9050919050565b7f43616e6e6f74207472616e7366657220746f2073656c66000000000000000000600082015250565b60006140ae601783612c33565b91506140b982614078565b602082019050919050565b600060208201905081810360008301526140dd816140a1565b9050919050565b600081519050919050565b600082825260208201905092915050565b600061410b826140e4565b61411581856140ef565b9350614125818560208601612c44565b61412e81612c77565b840191505092915050565b600060808201905061414e6000830187612d78565b61415b6020830186612d78565b6141686040830185612e0e565b818103606083015261417a8184614100565b905095945050505050565b60008151905061419481612b99565b92915050565b6000602082840312156141b0576141af612b63565b5b60006141be84828501614185565b91505092915050565b60006141d282612ce3565b91507fffffffffffffffffffffffffffffffffffffffffffffffffffffffffffffffff82141561420557614204613b46565b5b600182019050919050565b7f4552433732313a206d696e7420746f20746865207a65726f2061646472657373600082015250565b6000614246602083612c33565b915061425182614210565b602082019050919050565b6000602082019050818103600083015261427581614239565b9050919050565b7f4552433732313a20746f6b656e20616c7265616479206d696e74656400000000600082015250565b60006142b2601c83612c33565b91506142bd8261427c565b602082019050919050565b600060208201905081810360008301526142e1816142a5565b905091905056fe416e204e465420772f20494420257320686173206265656e206d696e74656420746f2025734142434445464748494a4b4c4d4e4f505152535455565758595a6162636465666768696a6b6c6d6e6f707172737475767778797a303132333435363738392b2fa26469706673582212208c290cd17a60cb75bff8522d282dc08e966e6defc4c5c49dfe1cf85adfac563564736f6c6343000809003368747470733a2f2f697066732e696f2f697066732f516d64763951735a34346f6b4c6f665436416135524632544158724b5273764e6e31736b37686b326246653331753f66696c656e616d653d626c61636b2e706e6768747470733a2f2f697066732e696f2f697066732f516d507674434775674d686e62747a68344774546443373145686d47623145433772564a6637736b366845586f4d3f66696c656e616d653d77686974652e706e6768747470733a2f2f697066732e696f2f697066732f516d574238397239646e64583441366b5745424e6d546d52514b52363273394277654e55656352413377486f65763f66696c656e616d653d626c75652e706e6768747470733a2f2f697066732e696f2f697066732f516d50394b63766a64574d524b7243507a554d4c317362384734774766747a3153354469376d4c5864586f50476d3f66696c656e616d653d6f72616e67652e706e6768747470733a2f2f697066732e696f2f697066732f516d655658555047724a6e6458546158395241334847333441556272565569435871694739564a675550556a66633f66696c656e616d653d707572706c652e706e6768747470733a2f2f697066732e696f2f697066732f516d58326f4167584c487a46543550554279437673396d3153623458397858796e70524741484d7a7a524c72684c3f66696c656e616d653d7265642e706e6768747470733a2f2f697066732e696f2f697066732f516d5167323944794e73645734554e786861766577447935395457396b46455561524771314c514c3539766558533f66696c656e616d653d677265656e2e706e6768747470733a2f2f697066732e696f2f697066732f516d6648555146703953743248546153726d717137556141795771635448795a34505750644c48596266383678543f66696c656e616d653d79656c6c6f772e706e67",
	"linkReferences": {},
	"deployedLinkReferences": {}
}